{
  "_format": "hh-sol-artifact-1",
  "contractName": "nftMint",
  "sourceName": "contracts/nftMint.sol",
  "abi": [
    {
      "inputs": [
        {
          "internalType": "string",
          "name": "baseURI",
          "type": "string"
        }
      ],
      "stateMutability": "nonpayable",
      "type": "constructor"
    },
    {
      "anonymous": false,
      "inputs": [
        {
          "indexed": true,
          "internalType": "address",
          "name": "owner",
          "type": "address"
        },
        {
          "indexed": true,
          "internalType": "address",
          "name": "approved",
          "type": "address"
        },
        {
          "indexed": true,
          "internalType": "uint256",
          "name": "tokenId",
          "type": "uint256"
        }
      ],
      "name": "Approval",
      "type": "event"
    },
    {
      "anonymous": false,
      "inputs": [
        {
          "indexed": true,
          "internalType": "address",
          "name": "owner",
          "type": "address"
        },
        {
          "indexed": true,
          "internalType": "address",
          "name": "operator",
          "type": "address"
        },
        {
          "indexed": false,
          "internalType": "bool",
          "name": "approved",
          "type": "bool"
        }
      ],
      "name": "ApprovalForAll",
      "type": "event"
    },
    {
      "anonymous": false,
      "inputs": [
        {
          "indexed": true,
          "internalType": "address",
          "name": "previousOwner",
          "type": "address"
        },
        {
          "indexed": true,
          "internalType": "address",
          "name": "newOwner",
          "type": "address"
        }
      ],
      "name": "OwnershipTransferred",
      "type": "event"
    },
    {
      "anonymous": false,
      "inputs": [
        {
          "indexed": true,
          "internalType": "address",
          "name": "from",
          "type": "address"
        },
        {
          "indexed": true,
          "internalType": "address",
          "name": "to",
          "type": "address"
        },
        {
          "indexed": true,
          "internalType": "uint256",
          "name": "tokenId",
          "type": "uint256"
        }
      ],
      "name": "Transfer",
      "type": "event"
    },
    {
      "inputs": [
        {
          "internalType": "address",
          "name": "to",
          "type": "address"
        },
        {
          "internalType": "uint256",
          "name": "tokenId",
          "type": "uint256"
        }
      ],
      "name": "approve",
      "outputs": [],
      "stateMutability": "nonpayable",
      "type": "function"
    },
    {
      "inputs": [
        {
          "internalType": "address",
          "name": "owner",
          "type": "address"
        }
      ],
      "name": "balanceOf",
      "outputs": [
        {
          "internalType": "uint256",
          "name": "",
          "type": "uint256"
        }
      ],
      "stateMutability": "view",
      "type": "function"
    },
    {
      "inputs": [],
      "name": "baseExtension",
      "outputs": [
        {
          "internalType": "string",
          "name": "",
          "type": "string"
        }
      ],
      "stateMutability": "view",
      "type": "function"
    },
    {
      "inputs": [],
      "name": "baseTokenURI",
      "outputs": [
        {
          "internalType": "string",
          "name": "",
          "type": "string"
        }
      ],
      "stateMutability": "view",
      "type": "function"
    },
    {
      "inputs": [],
      "name": "cost",
      "outputs": [
        {
          "internalType": "uint256",
          "name": "",
          "type": "uint256"
        }
      ],
      "stateMutability": "view",
      "type": "function"
    },
    {
      "inputs": [],
      "name": "flipSaleState",
      "outputs": [],
      "stateMutability": "nonpayable",
      "type": "function"
    },
    {
      "inputs": [
        {
          "internalType": "uint256",
          "name": "tokenId",
          "type": "uint256"
        }
      ],
      "name": "getApproved",
      "outputs": [
        {
          "internalType": "address",
          "name": "",
          "type": "address"
        }
      ],
      "stateMutability": "view",
      "type": "function"
    },
    {
      "inputs": [
        {
          "internalType": "address",
          "name": "owner",
          "type": "address"
        },
        {
          "internalType": "address",
          "name": "operator",
          "type": "address"
        }
      ],
      "name": "isApprovedForAll",
      "outputs": [
        {
          "internalType": "bool",
          "name": "",
          "type": "bool"
        }
      ],
      "stateMutability": "view",
      "type": "function"
    },
    {
      "inputs": [],
      "name": "isSaleActive",
      "outputs": [
        {
          "internalType": "bool",
          "name": "",
          "type": "bool"
        }
      ],
      "stateMutability": "view",
      "type": "function"
    },
    {
      "inputs": [],
      "name": "maxPerMint",
      "outputs": [
        {
          "internalType": "uint256",
          "name": "",
          "type": "uint256"
        }
      ],
      "stateMutability": "view",
      "type": "function"
    },
    {
      "inputs": [],
      "name": "maxSupply",
      "outputs": [
        {
          "internalType": "uint256",
          "name": "",
          "type": "uint256"
        }
      ],
      "stateMutability": "view",
      "type": "function"
    },
    {
      "inputs": [
        {
          "internalType": "uint256",
          "name": "_count",
          "type": "uint256"
        }
      ],
      "name": "mintNFTs",
      "outputs": [],
      "stateMutability": "payable",
      "type": "function"
    },
    {
      "inputs": [],
      "name": "name",
      "outputs": [
        {
          "internalType": "string",
          "name": "",
          "type": "string"
        }
      ],
      "stateMutability": "view",
      "type": "function"
    },
    {
      "inputs": [],
      "name": "owner",
      "outputs": [
        {
          "internalType": "address",
          "name": "",
          "type": "address"
        }
      ],
      "stateMutability": "view",
      "type": "function"
    },
    {
      "inputs": [
        {
          "internalType": "uint256",
          "name": "tokenId",
          "type": "uint256"
        }
      ],
      "name": "ownerOf",
      "outputs": [
        {
          "internalType": "address",
          "name": "",
          "type": "address"
        }
      ],
      "stateMutability": "view",
      "type": "function"
    },
    {
      "inputs": [
        {
          "internalType": "address",
          "name": "_user",
          "type": "address"
        }
      ],
      "name": "removeWhitelistUser",
      "outputs": [],
      "stateMutability": "nonpayable",
      "type": "function"
    },
    {
      "inputs": [],
      "name": "renounceOwnership",
      "outputs": [],
      "stateMutability": "nonpayable",
      "type": "function"
    },
    {
      "inputs": [
        {
          "internalType": "address",
          "name": "from",
          "type": "address"
        },
        {
          "internalType": "address",
          "name": "to",
          "type": "address"
        },
        {
          "internalType": "uint256",
          "name": "tokenId",
          "type": "uint256"
        }
      ],
      "name": "safeTransferFrom",
      "outputs": [],
      "stateMutability": "nonpayable",
      "type": "function"
    },
    {
      "inputs": [
        {
          "internalType": "address",
          "name": "from",
          "type": "address"
        },
        {
          "internalType": "address",
          "name": "to",
          "type": "address"
        },
        {
          "internalType": "uint256",
          "name": "tokenId",
          "type": "uint256"
        },
        {
          "internalType": "bytes",
          "name": "data",
          "type": "bytes"
        }
      ],
      "name": "safeTransferFrom",
      "outputs": [],
      "stateMutability": "nonpayable",
      "type": "function"
    },
    {
      "inputs": [
        {
          "internalType": "address",
          "name": "operator",
          "type": "address"
        },
        {
          "internalType": "bool",
          "name": "approved",
          "type": "bool"
        }
      ],
      "name": "setApprovalForAll",
      "outputs": [],
      "stateMutability": "nonpayable",
      "type": "function"
    },
    {
      "inputs": [
        {
          "internalType": "string",
          "name": "_newBaseExtension",
          "type": "string"
        }
      ],
      "name": "setBaseExtension",
      "outputs": [],
      "stateMutability": "nonpayable",
      "type": "function"
    },
    {
      "inputs": [
        {
          "internalType": "string",
          "name": "_baseTokenURI",
          "type": "string"
        }
      ],
      "name": "setBaseURI",
      "outputs": [],
      "stateMutability": "nonpayable",
      "type": "function"
    },
    {
      "inputs": [
        {
          "internalType": "uint256",
          "name": "_newCost",
          "type": "uint256"
        }
      ],
      "name": "setCost",
      "outputs": [],
      "stateMutability": "nonpayable",
      "type": "function"
    },
    {
      "inputs": [
        {
          "internalType": "uint256",
          "name": "_newmaxPerMint",
          "type": "uint256"
        }
      ],
      "name": "setmaxMintAmount",
      "outputs": [],
      "stateMutability": "nonpayable",
      "type": "function"
    },
    {
      "inputs": [
        {
          "internalType": "bytes4",
          "name": "interfaceId",
          "type": "bytes4"
        }
      ],
      "name": "supportsInterface",
      "outputs": [
        {
          "internalType": "bool",
          "name": "",
          "type": "bool"
        }
      ],
      "stateMutability": "view",
      "type": "function"
    },
    {
      "inputs": [],
      "name": "symbol",
      "outputs": [
        {
          "internalType": "string",
          "name": "",
          "type": "string"
        }
      ],
      "stateMutability": "view",
      "type": "function"
    },
    {
      "inputs": [
        {
          "internalType": "uint256",
          "name": "index",
          "type": "uint256"
        }
      ],
      "name": "tokenByIndex",
      "outputs": [
        {
          "internalType": "uint256",
          "name": "",
          "type": "uint256"
        }
      ],
      "stateMutability": "view",
      "type": "function"
    },
    {
      "inputs": [
        {
          "internalType": "address",
          "name": "owner",
          "type": "address"
        },
        {
          "internalType": "uint256",
          "name": "index",
          "type": "uint256"
        }
      ],
      "name": "tokenOfOwnerByIndex",
      "outputs": [
        {
          "internalType": "uint256",
          "name": "",
          "type": "uint256"
        }
      ],
      "stateMutability": "view",
      "type": "function"
    },
    {
      "inputs": [
        {
          "internalType": "uint256",
          "name": "tokenId",
          "type": "uint256"
        }
      ],
      "name": "tokenURI",
      "outputs": [
        {
          "internalType": "string",
          "name": "",
          "type": "string"
        }
      ],
      "stateMutability": "view",
      "type": "function"
    },
    {
      "inputs": [],
      "name": "totalSupply",
      "outputs": [
        {
          "internalType": "uint256",
          "name": "",
          "type": "uint256"
        }
      ],
      "stateMutability": "view",
      "type": "function"
    },
    {
      "inputs": [
        {
          "internalType": "address",
          "name": "from",
          "type": "address"
        },
        {
          "internalType": "address",
          "name": "to",
          "type": "address"
        },
        {
          "internalType": "uint256",
          "name": "tokenId",
          "type": "uint256"
        }
      ],
      "name": "transferFrom",
      "outputs": [],
      "stateMutability": "nonpayable",
      "type": "function"
    },
    {
      "inputs": [
        {
          "internalType": "address",
          "name": "newOwner",
          "type": "address"
        }
      ],
      "name": "transferOwnership",
      "outputs": [],
      "stateMutability": "nonpayable",
      "type": "function"
    },
    {
      "inputs": [
        {
          "internalType": "address",
          "name": "_owner",
          "type": "address"
        }
      ],
      "name": "walletOfOwner",
      "outputs": [
        {
          "internalType": "uint256[]",
          "name": "",
          "type": "uint256[]"
        }
      ],
      "stateMutability": "view",
      "type": "function"
    },
    {
      "inputs": [
        {
          "internalType": "address",
          "name": "_user",
          "type": "address"
        }
      ],
      "name": "whitelistUser",
      "outputs": [],
      "stateMutability": "nonpayable",
      "type": "function"
    },
    {
      "inputs": [
        {
          "internalType": "address",
          "name": "",
          "type": "address"
        }
      ],
      "name": "whitelisted",
      "outputs": [
        {
          "internalType": "bool",
          "name": "",
          "type": "bool"
        }
      ],
      "stateMutability": "view",
      "type": "function"
    },
    {
      "inputs": [],
      "name": "withdraw",
      "outputs": [],
      "stateMutability": "payable",
      "type": "function"
    }
  ],
  "bytecode": "0x60806040526040518060400160405280600581526020017f2e6a736f6e000000000000000000000000000000000000000000000000000000815250600e90805190602001906200005192919062000322565b5066038d7ea4c68000600f5560056010553480156200006f57600080fd5b50604051620047e1380380620047e1833981810160405281019062000095919062000444565b6040518060400160405280600381526020017f41544800000000000000000000000000000000000000000000000000000000008152506040518060400160405280600681526020017f415448494b41000000000000000000000000000000000000000000000000000081525081600090805190602001906200011992919062000322565b5080600190805190602001906200013292919062000322565b50505062000155620001496200016d60201b60201c565b6200017560201b60201c565b62000166816200023b60201b60201c565b506200067c565b600033905090565b6000600660009054906101000a900473ffffffffffffffffffffffffffffffffffffffff16905081600660006101000a81548173ffffffffffffffffffffffffffffffffffffffff021916908373ffffffffffffffffffffffffffffffffffffffff1602179055508173ffffffffffffffffffffffffffffffffffffffff168173ffffffffffffffffffffffffffffffffffffffff167f8be0079c531659141344cd1fd0a4f28419497f9722a3daafe3b4186f6b6457e060405160405180910390a35050565b6200024b6200026760201b60201c565b80600d90805190602001906200026392919062000322565b5050565b620002776200016d60201b60201c565b73ffffffffffffffffffffffffffffffffffffffff166200029d620002f860201b60201c565b73ffffffffffffffffffffffffffffffffffffffff1614620002f6576040517f08c379a0000000000000000000000000000000000000000000000000000000008152600401620002ed90620004b0565b60405180910390fd5b565b6000600660009054906101000a900473ffffffffffffffffffffffffffffffffffffffff16905090565b828054620003309062000578565b90600052602060002090601f016020900481019282620003545760008555620003a0565b82601f106200036f57805160ff1916838001178555620003a0565b82800160010185558215620003a0579182015b828111156200039f57825182559160200191906001019062000382565b5b509050620003af9190620003b3565b5090565b5b80821115620003ce576000816000905550600101620003b4565b5090565b6000620003e9620003e384620004fb565b620004d2565b9050828152602081018484840111156200040257600080fd5b6200040f84828562000542565b509392505050565b600082601f8301126200042957600080fd5b81516200043b848260208601620003d2565b91505092915050565b6000602082840312156200045757600080fd5b600082015167ffffffffffffffff8111156200047257600080fd5b620004808482850162000417565b91505092915050565b60006200049860208362000531565b9150620004a58262000653565b602082019050919050565b60006020820190508181036000830152620004cb8162000489565b9050919050565b6000620004de620004f1565b9050620004ec8282620005ae565b919050565b6000604051905090565b600067ffffffffffffffff82111562000519576200051862000613565b5b620005248262000642565b9050602081019050919050565b600082825260208201905092915050565b60005b838110156200056257808201518184015260208101905062000545565b8381111562000572576000848401525b50505050565b600060028204905060018216806200059157607f821691505b60208210811415620005a857620005a7620005e4565b5b50919050565b620005b98262000642565b810181811067ffffffffffffffff82111715620005db57620005da62000613565b5b80604052505050565b7f4e487b7100000000000000000000000000000000000000000000000000000000600052602260045260246000fd5b7f4e487b7100000000000000000000000000000000000000000000000000000000600052604160045260246000fd5b6000601f19601f8301169050919050565b7f4f776e61626c653a2063616c6c6572206973206e6f7420746865206f776e6572600082015250565b614155806200068c6000396000f3fe60806040526004361061020f5760003560e01c806355f804b311610118578063b88d4fde116100a0578063d5abeb011161006f578063d5abeb011461076d578063d936547e14610798578063da3ef23f146107d5578063e985e9c5146107fe578063f2fde38b1461083b5761020f565b8063b88d4fde146106b1578063c6682862146106da578063c87b56dd14610705578063d547cfb7146107425761020f565b8063715018a6116100e7578063715018a6146105f25780637f00c7a6146106095780638da5cb5b1461063257806395d89b411461065d578063a22cb465146106885761020f565b806355f804b314610524578063564566a81461054d5780636352211e1461057857806370a08231146105b55761020f565b806334918dfd1161019b578063438b63001161016a578063438b63001461042d57806344a0d68a1461046a5780634a4c560d146104935780634f6ccce7146104bc578063507e094f146104f95761020f565b806334918dfd146103c75780633b4b1381146103de5780633ccfd60b146103fa57806342842e0e146104045761020f565b806313faede6116101e257806313faede6146102e257806318160ddd1461030d57806323b872dd146103385780632f745c591461036157806330cc7ae01461039e5761020f565b806301ffc9a71461021457806306fdde0314610251578063081812fc1461027c578063095ea7b3146102b9575b600080fd5b34801561022057600080fd5b5061023b60048036038101906102369190612f29565b610864565b6040516102489190613496565b60405180910390f35b34801561025d57600080fd5b50610266610876565b60405161027391906134b1565b60405180910390f35b34801561028857600080fd5b506102a3600480360381019061029e9190612fbc565b610908565b6040516102b0919061340d565b60405180910390f35b3480156102c557600080fd5b506102e060048036038101906102db9190612eed565b61094e565b005b3480156102ee57600080fd5b506102f7610a66565b6040516103049190613753565b60405180910390f35b34801561031957600080fd5b50610322610a6c565b60405161032f9190613753565b60405180910390f35b34801561034457600080fd5b5061035f600480360381019061035a9190612de7565b610a79565b005b34801561036d57600080fd5b5061038860048036038101906103839190612eed565b610ad9565b6040516103959190613753565b60405180910390f35b3480156103aa57600080fd5b506103c560048036038101906103c09190612d82565b610b7e565b005b3480156103d357600080fd5b506103dc610be1565b005b6103f860048036038101906103f39190612fbc565b610c15565b005b610402610e16565b005b34801561041057600080fd5b5061042b60048036038101906104269190612de7565b610e5e565b005b34801561043957600080fd5b50610454600480360381019061044f9190612d82565b610e7e565b6040516104619190613474565b60405180910390f35b34801561047657600080fd5b50610491600480360381019061048c9190612fbc565b610f78565b005b34801561049f57600080fd5b506104ba60048036038101906104b59190612d82565b610f8a565b005b3480156104c857600080fd5b506104e360048036038101906104de9190612fbc565b610fed565b6040516104f09190613753565b60405180910390f35b34801561050557600080fd5b5061050e611084565b60405161051b9190613753565b60405180910390f35b34801561053057600080fd5b5061054b60048036038101906105469190612f7b565b61108a565b005b34801561055957600080fd5b506105626110ac565b60405161056f9190613496565b60405180910390f35b34801561058457600080fd5b5061059f600480360381019061059a9190612fbc565b6110bf565b6040516105ac919061340d565b60405180910390f35b3480156105c157600080fd5b506105dc60048036038101906105d79190612d82565b611146565b6040516105e99190613753565b60405180910390f35b3480156105fe57600080fd5b506106076111fe565b005b34801561061557600080fd5b50610630600480360381019061062b9190612fbc565b611212565b005b34801561063e57600080fd5b50610647611224565b604051610654919061340d565b60405180910390f35b34801561066957600080fd5b5061067261124e565b60405161067f91906134b1565b60405180910390f35b34801561069457600080fd5b506106af60048036038101906106aa9190612eb1565b6112e0565b005b3480156106bd57600080fd5b506106d860048036038101906106d39190612e36565b6112f6565b005b3480156106e657600080fd5b506106ef611358565b6040516106fc91906134b1565b60405180910390f35b34801561071157600080fd5b5061072c60048036038101906107279190612fbc565b6113e6565b60405161073991906134b1565b60405180910390f35b34801561074e57600080fd5b50610757611483565b60405161076491906134b1565b60405180910390f35b34801561077957600080fd5b50610782611511565b60405161078f9190613753565b60405180910390f35b3480156107a457600080fd5b506107bf60048036038101906107ba9190612d82565b611517565b6040516107cc9190613496565b60405180910390f35b3480156107e157600080fd5b506107fc60048036038101906107f79190612f7b565b611537565b005b34801561080a57600080fd5b5061082560048036038101906108209190612dab565b611559565b6040516108329190613496565b60405180910390f35b34801561084757600080fd5b50610862600480360381019061085d9190612d82565b6115ed565b005b600061086f82611671565b9050919050565b60606000805461088590613a0b565b80601f01602080910402602001604051908101604052809291908181526020018280546108b190613a0b565b80156108fe5780601f106108d3576101008083540402835291602001916108fe565b820191906000526020600020905b8154815290600101906020018083116108e157829003601f168201915b5050505050905090565b6000610913826116eb565b6004600083815260200190815260200160002060009054906101000a900473ffffffffffffffffffffffffffffffffffffffff169050919050565b6000610959826110bf565b90508073ffffffffffffffffffffffffffffffffffffffff168373ffffffffffffffffffffffffffffffffffffffff1614156109ca576040517f08c379a00000000000000000000000000000000000000000000000000000000081526004016109c1906136b3565b60405180910390fd5b8073ffffffffffffffffffffffffffffffffffffffff166109e9611736565b73ffffffffffffffffffffffffffffffffffffffff161480610a185750610a1781610a12611736565b611559565b5b610a57576040517f08c379a0000000000000000000000000000000000000000000000000000000008152600401610a4e906136d3565b60405180910390fd5b610a61838361173e565b505050565b600f5481565b6000600980549050905090565b610a8a610a84611736565b826117f7565b610ac9576040517f08c379a0000000000000000000000000000000000000000000000000000000008152600401610ac0906134d3565b60405180910390fd5b610ad483838361188c565b505050565b6000610ae483611146565b8210610b25576040517f08c379a0000000000000000000000000000000000000000000000000000000008152600401610b1c906134f3565b60405180910390fd5b600760008473ffffffffffffffffffffffffffffffffffffffff1673ffffffffffffffffffffffffffffffffffffffff168152602001908152602001600020600083815260200190815260200160002054905092915050565b610b86611b86565b6000601260008373ffffffffffffffffffffffffffffffffffffffff1673ffffffffffffffffffffffffffffffffffffffff16815260200190815260200160002060006101000a81548160ff02191690831515021790555050565b610be9611b86565b601160009054906101000a900460ff1615601160006101000a81548160ff021916908315150217905550565b6000610c21600c611c04565b90506103e8610c398383611c1290919063ffffffff16565b1115610c7a576040517f08c379a0000000000000000000000000000000000000000000000000000000008152600401610c7190613713565b60405180910390fd5b600082118015610c8c57506010548211155b610ccb576040517f08c379a0000000000000000000000000000000000000000000000000000000008152600401610cc2906135f3565b60405180910390fd5b610ce082600f54611c2890919063ffffffff16565b341015610d22576040517f08c379a0000000000000000000000000000000000000000000000000000000008152600401610d19906135d3565b60405180910390fd5b610d2a611224565b73ffffffffffffffffffffffffffffffffffffffff163373ffffffffffffffffffffffffffffffffffffffff1614610dd05760011515601260003373ffffffffffffffffffffffffffffffffffffffff1673ffffffffffffffffffffffffffffffffffffffff16815260200190815260200160002060009054906101000a900460ff16151514610dcf5781600f54610dc291906138c7565b341015610dce57600080fd5b5b5b60005b82811015610e11576000610de7600c611c04565b9050610df33382611c3e565b610dfd600c611c5c565b508080610e0990613a6e565b915050610dd3565b505050565b610e1e611b86565b3373ffffffffffffffffffffffffffffffffffffffff166108fc479081150290604051600060405180830381858888f19350505050610e5c57600080fd5b565b610e79838383604051806020016040528060008152506112f6565b505050565b60606000610e8b83611146565b905060008167ffffffffffffffff811115610ecf577f4e487b7100000000000000000000000000000000000000000000000000000000600052604160045260246000fd5b604051908082528060200260200182016040528015610efd5781602001602082028036833780820191505090505b50905060005b82811015610f6d57610f158582610ad9565b828281518110610f4e577f4e487b7100000000000000000000000000000000000000000000000000000000600052603260045260246000fd5b6020026020010181815250508080610f6590613a6e565b915050610f03565b508092505050919050565b610f80611b86565b80600f8190555050565b610f92611b86565b6001601260008373ffffffffffffffffffffffffffffffffffffffff1673ffffffffffffffffffffffffffffffffffffffff16815260200190815260200160002060006101000a81548160ff02191690831515021790555050565b6000610ff7610a6c565b8210611038576040517f08c379a000000000000000000000000000000000000000000000000000000000815260040161102f906136f3565b60405180910390fd5b60098281548110611072577f4e487b7100000000000000000000000000000000000000000000000000000000600052603260045260246000fd5b90600052602060002001549050919050565b60105481565b611092611b86565b80600d90805190602001906110a8929190612ba6565b5050565b601160009054906101000a900460ff1681565b6000806110cb83611c72565b9050600073ffffffffffffffffffffffffffffffffffffffff168173ffffffffffffffffffffffffffffffffffffffff16141561113d576040517f08c379a000000000000000000000000000000000000000000000000000000000815260040161113490613693565b60405180910390fd5b80915050919050565b60008073ffffffffffffffffffffffffffffffffffffffff168273ffffffffffffffffffffffffffffffffffffffff1614156111b7576040517f08c379a00000000000000000000000000000000000000000000000000000000081526004016111ae90613613565b60405180910390fd5b600360008373ffffffffffffffffffffffffffffffffffffffff1673ffffffffffffffffffffffffffffffffffffffff168152602001908152602001600020549050919050565b611206611b86565b6112106000611caf565b565b61121a611b86565b8060108190555050565b6000600660009054906101000a900473ffffffffffffffffffffffffffffffffffffffff16905090565b60606001805461125d90613a0b565b80601f016020809104026020016040519081016040528092919081815260200182805461128990613a0b565b80156112d65780601f106112ab576101008083540402835291602001916112d6565b820191906000526020600020905b8154815290600101906020018083116112b957829003601f168201915b5050505050905090565b6112f26112eb611736565b8383611d75565b5050565b611307611301611736565b836117f7565b611346576040517f08c379a000000000000000000000000000000000000000000000000000000000815260040161133d906134d3565b60405180910390fd5b61135284848484611ee2565b50505050565b600e805461136590613a0b565b80601f016020809104026020016040519081016040528092919081815260200182805461139190613a0b565b80156113de5780601f106113b3576101008083540402835291602001916113de565b820191906000526020600020905b8154815290600101906020018083116113c157829003601f168201915b505050505081565b60606113f182611f3e565b611430576040517f08c379a000000000000000000000000000000000000000000000000000000000815260040161142790613673565b60405180910390fd5b600061143a611f7f565b9050600081511161145a576040518060200160405280600081525061147b565b8060405160200161146b91906133f6565b6040516020818303038152906040525b915050919050565b600d805461149090613a0b565b80601f01602080910402602001604051908101604052809291908181526020018280546114bc90613a0b565b80156115095780601f106114de57610100808354040283529160200191611509565b820191906000526020600020905b8154815290600101906020018083116114ec57829003601f168201915b505050505081565b6103e881565b60126020528060005260406000206000915054906101000a900460ff1681565b61153f611b86565b80600e9080519060200190611555929190612ba6565b5050565b6000600560008473ffffffffffffffffffffffffffffffffffffffff1673ffffffffffffffffffffffffffffffffffffffff16815260200190815260200160002060008373ffffffffffffffffffffffffffffffffffffffff1673ffffffffffffffffffffffffffffffffffffffff16815260200190815260200160002060009054906101000a900460ff16905092915050565b6115f5611b86565b600073ffffffffffffffffffffffffffffffffffffffff168173ffffffffffffffffffffffffffffffffffffffff161415611665576040517f08c379a000000000000000000000000000000000000000000000000000000000815260040161165c90613533565b60405180910390fd5b61166e81611caf565b50565b60007f780e9d63000000000000000000000000000000000000000000000000000000007bffffffffffffffffffffffffffffffffffffffffffffffffffffffff1916827bffffffffffffffffffffffffffffffffffffffffffffffffffffffff191614806116e457506116e382612011565b5b9050919050565b6116f481611f3e565b611733576040517f08c379a000000000000000000000000000000000000000000000000000000000815260040161172a90613693565b60405180910390fd5b50565b600033905090565b816004600083815260200190815260200160002060006101000a81548173ffffffffffffffffffffffffffffffffffffffff021916908373ffffffffffffffffffffffffffffffffffffffff160217905550808273ffffffffffffffffffffffffffffffffffffffff166117b1836110bf565b73ffffffffffffffffffffffffffffffffffffffff167f8c5be1e5ebec7d5bd14f71427d1e84f3dd0314c0f7b2291e5b200ac8c7c3b92560405160405180910390a45050565b600080611803836110bf565b90508073ffffffffffffffffffffffffffffffffffffffff168473ffffffffffffffffffffffffffffffffffffffff16148061184557506118448185611559565b5b8061188357508373ffffffffffffffffffffffffffffffffffffffff1661186b84610908565b73ffffffffffffffffffffffffffffffffffffffff16145b91505092915050565b8273ffffffffffffffffffffffffffffffffffffffff166118ac826110bf565b73ffffffffffffffffffffffffffffffffffffffff1614611902576040517f08c379a00000000000000000000000000000000000000000000000000000000081526004016118f990613553565b60405180910390fd5b600073ffffffffffffffffffffffffffffffffffffffff168273ffffffffffffffffffffffffffffffffffffffff161415611972576040517f08c379a000000000000000000000000000000000000000000000000000000000815260040161196990613593565b60405180910390fd5b61197f83838360016120f3565b8273ffffffffffffffffffffffffffffffffffffffff1661199f826110bf565b73ffffffffffffffffffffffffffffffffffffffff16146119f5576040517f08c379a00000000000000000000000000000000000000000000000000000000081526004016119ec90613553565b60405180910390fd5b6004600082815260200190815260200160002060006101000a81549073ffffffffffffffffffffffffffffffffffffffff02191690556001600360008573ffffffffffffffffffffffffffffffffffffffff1673ffffffffffffffffffffffffffffffffffffffff168152602001908152602001600020600082825403925050819055506001600360008473ffffffffffffffffffffffffffffffffffffffff1673ffffffffffffffffffffffffffffffffffffffff16815260200190815260200160002060008282540192505081905550816002600083815260200190815260200160002060006101000a81548173ffffffffffffffffffffffffffffffffffffffff021916908373ffffffffffffffffffffffffffffffffffffffff160217905550808273ffffffffffffffffffffffffffffffffffffffff168473ffffffffffffffffffffffffffffffffffffffff167fddf252ad1be2c89b69c2b068fc378daa952ba7f163c4a11628f55a4df523b3ef60405160405180910390a4611b818383836001612105565b505050565b611b8e611736565b73ffffffffffffffffffffffffffffffffffffffff16611bac611224565b73ffffffffffffffffffffffffffffffffffffffff1614611c02576040517f08c379a0000000000000000000000000000000000000000000000000000000008152600401611bf990613653565b60405180910390fd5b565b600081600001549050919050565b60008183611c209190613871565b905092915050565b60008183611c3691906138c7565b905092915050565b611c5882826040518060200160405280600081525061210b565b5050565b6001816000016000828254019250508190555050565b60006002600083815260200190815260200160002060009054906101000a900473ffffffffffffffffffffffffffffffffffffffff169050919050565b6000600660009054906101000a900473ffffffffffffffffffffffffffffffffffffffff16905081600660006101000a81548173ffffffffffffffffffffffffffffffffffffffff021916908373ffffffffffffffffffffffffffffffffffffffff1602179055508173ffffffffffffffffffffffffffffffffffffffff168173ffffffffffffffffffffffffffffffffffffffff167f8be0079c531659141344cd1fd0a4f28419497f9722a3daafe3b4186f6b6457e060405160405180910390a35050565b8173ffffffffffffffffffffffffffffffffffffffff168373ffffffffffffffffffffffffffffffffffffffff161415611de4576040517f08c379a0000000000000000000000000000000000000000000000000000000008152600401611ddb906135b3565b60405180910390fd5b80600560008573ffffffffffffffffffffffffffffffffffffffff1673ffffffffffffffffffffffffffffffffffffffff16815260200190815260200160002060008473ffffffffffffffffffffffffffffffffffffffff1673ffffffffffffffffffffffffffffffffffffffff16815260200190815260200160002060006101000a81548160ff0219169083151502179055508173ffffffffffffffffffffffffffffffffffffffff168373ffffffffffffffffffffffffffffffffffffffff167f17307eab39ab6107e8899845ad3d59bd9653f200f220920489ca2b5937696c3183604051611ed59190613496565b60405180910390a3505050565b611eed84848461188c565b611ef984848484612166565b611f38576040517f08c379a0000000000000000000000000000000000000000000000000000000008152600401611f2f90613513565b60405180910390fd5b50505050565b60008073ffffffffffffffffffffffffffffffffffffffff16611f6083611c72565b73ffffffffffffffffffffffffffffffffffffffff1614159050919050565b6060600d8054611f8e90613a0b565b80601f0160208091040260200160405190810160405280929190818152602001828054611fba90613a0b565b80156120075780601f10611fdc57610100808354040283529160200191612007565b820191906000526020600020905b815481529060010190602001808311611fea57829003601f168201915b5050505050905090565b60007f80ac58cd000000000000000000000000000000000000000000000000000000007bffffffffffffffffffffffffffffffffffffffffffffffffffffffff1916827bffffffffffffffffffffffffffffffffffffffffffffffffffffffff191614806120dc57507f5b5e139f000000000000000000000000000000000000000000000000000000007bffffffffffffffffffffffffffffffffffffffffffffffffffffffff1916827bffffffffffffffffffffffffffffffffffffffffffffffffffffffff1916145b806120ec57506120eb826122fd565b5b9050919050565b6120ff84848484612367565b50505050565b50505050565b61211583836124c7565b6121226000848484612166565b612161576040517f08c379a000000000000000000000000000000000000000000000000000000000815260040161215890613513565b60405180910390fd5b505050565b60006121878473ffffffffffffffffffffffffffffffffffffffff166126e5565b156122f0578373ffffffffffffffffffffffffffffffffffffffff1663150b7a026121b0611736565b8786866040518563ffffffff1660e01b81526004016121d29493929190613428565b602060405180830381600087803b1580156121ec57600080fd5b505af192505050801561221d57506040513d601f19601f8201168201806040525081019061221a9190612f52565b60015b6122a0573d806000811461224d576040519150601f19603f3d011682016040523d82523d6000602084013e612252565b606091505b50600081511415612298576040517f08c379a000000000000000000000000000000000000000000000000000000000815260040161228f90613513565b60405180910390fd5b805181602001fd5b63150b7a0260e01b7bffffffffffffffffffffffffffffffffffffffffffffffffffffffff1916817bffffffffffffffffffffffffffffffffffffffffffffffffffffffff1916149150506122f5565b600190505b949350505050565b60007f01ffc9a7000000000000000000000000000000000000000000000000000000007bffffffffffffffffffffffffffffffffffffffffffffffffffffffff1916827bffffffffffffffffffffffffffffffffffffffffffffffffffffffff1916149050919050565b61237384848484612708565b60018111156123b7576040517f08c379a00000000000000000000000000000000000000000000000000000000081526004016123ae90613733565b60405180910390fd5b6000829050600073ffffffffffffffffffffffffffffffffffffffff168573ffffffffffffffffffffffffffffffffffffffff1614156123ff576123fa8161282e565b61243e565b8373ffffffffffffffffffffffffffffffffffffffff168573ffffffffffffffffffffffffffffffffffffffff161461243d5761243c8582612877565b5b5b600073ffffffffffffffffffffffffffffffffffffffff168473ffffffffffffffffffffffffffffffffffffffff1614156124815761247c816129e4565b6124c0565b8473ffffffffffffffffffffffffffffffffffffffff168473ffffffffffffffffffffffffffffffffffffffff16146124bf576124be8482612b27565b5b5b5050505050565b600073ffffffffffffffffffffffffffffffffffffffff168273ffffffffffffffffffffffffffffffffffffffff161415612537576040517f08c379a000000000000000000000000000000000000000000000000000000000815260040161252e90613633565b60405180910390fd5b61254081611f3e565b15612580576040517f08c379a000000000000000000000000000000000000000000000000000000000815260040161257790613573565b60405180910390fd5b61258e6000838360016120f3565b61259781611f3e565b156125d7576040517f08c379a00000000000000000000000000000000000000000000000000000000081526004016125ce90613573565b60405180910390fd5b6001600360008473ffffffffffffffffffffffffffffffffffffffff1673ffffffffffffffffffffffffffffffffffffffff16815260200190815260200160002060008282540192505081905550816002600083815260200190815260200160002060006101000a81548173ffffffffffffffffffffffffffffffffffffffff021916908373ffffffffffffffffffffffffffffffffffffffff160217905550808273ffffffffffffffffffffffffffffffffffffffff16600073ffffffffffffffffffffffffffffffffffffffff167fddf252ad1be2c89b69c2b068fc378daa952ba7f163c4a11628f55a4df523b3ef60405160405180910390a46126e1600083836001612105565b5050565b6000808273ffffffffffffffffffffffffffffffffffffffff163b119050919050565b600181111561282857600073ffffffffffffffffffffffffffffffffffffffff168473ffffffffffffffffffffffffffffffffffffffff161461279c5780600360008673ffffffffffffffffffffffffffffffffffffffff1673ffffffffffffffffffffffffffffffffffffffff16815260200190815260200160002060008282546127949190613921565b925050819055505b600073ffffffffffffffffffffffffffffffffffffffff168373ffffffffffffffffffffffffffffffffffffffff16146128275780600360008573ffffffffffffffffffffffffffffffffffffffff1673ffffffffffffffffffffffffffffffffffffffff168152602001908152602001600020600082825461281f9190613871565b925050819055505b5b50505050565b600980549050600a600083815260200190815260200160002081905550600981908060018154018082558091505060019003906000526020600020016000909190919091505550565b6000600161288484611146565b61288e9190613921565b9050600060086000848152602001908152602001600020549050818114612973576000600760008673ffffffffffffffffffffffffffffffffffffffff1673ffffffffffffffffffffffffffffffffffffffff168152602001908152602001600020600084815260200190815260200160002054905080600760008773ffffffffffffffffffffffffffffffffffffffff1673ffffffffffffffffffffffffffffffffffffffff168152602001908152602001600020600084815260200190815260200160002081905550816008600083815260200190815260200160002081905550505b6008600084815260200190815260200160002060009055600760008573ffffffffffffffffffffffffffffffffffffffff1673ffffffffffffffffffffffffffffffffffffffff16815260200190815260200160002060008381526020019081526020016000206000905550505050565b600060016009805490506129f89190613921565b90506000600a6000848152602001908152602001600020549050600060098381548110612a4e577f4e487b7100000000000000000000000000000000000000000000000000000000600052603260045260246000fd5b906000526020600020015490508060098381548110612a96577f4e487b7100000000000000000000000000000000000000000000000000000000600052603260045260246000fd5b906000526020600020018190555081600a600083815260200190815260200160002081905550600a6000858152602001908152602001600020600090556009805480612b0b577f4e487b7100000000000000000000000000000000000000000000000000000000600052603160045260246000fd5b6001900381819060005260206000200160009055905550505050565b6000612b3283611146565b905081600760008573ffffffffffffffffffffffffffffffffffffffff1673ffffffffffffffffffffffffffffffffffffffff168152602001908152602001600020600083815260200190815260200160002081905550806008600084815260200190815260200160002081905550505050565b828054612bb290613a0b565b90600052602060002090601f016020900481019282612bd45760008555612c1b565b82601f10612bed57805160ff1916838001178555612c1b565b82800160010185558215612c1b579182015b82811115612c1a578251825591602001919060010190612bff565b5b509050612c289190612c2c565b5090565b5b80821115612c45576000816000905550600101612c2d565b5090565b6000612c5c612c5784613793565b61376e565b905082815260208101848484011115612c7457600080fd5b612c7f8482856139c9565b509392505050565b6000612c9a612c95846137c4565b61376e565b905082815260208101848484011115612cb257600080fd5b612cbd8482856139c9565b509392505050565b600081359050612cd4816140c3565b92915050565b600081359050612ce9816140da565b92915050565b600081359050612cfe816140f1565b92915050565b600081519050612d13816140f1565b92915050565b600082601f830112612d2a57600080fd5b8135612d3a848260208601612c49565b91505092915050565b600082601f830112612d5457600080fd5b8135612d64848260208601612c87565b91505092915050565b600081359050612d7c81614108565b92915050565b600060208284031215612d9457600080fd5b6000612da284828501612cc5565b91505092915050565b60008060408385031215612dbe57600080fd5b6000612dcc85828601612cc5565b9250506020612ddd85828601612cc5565b9150509250929050565b600080600060608486031215612dfc57600080fd5b6000612e0a86828701612cc5565b9350506020612e1b86828701612cc5565b9250506040612e2c86828701612d6d565b9150509250925092565b60008060008060808587031215612e4c57600080fd5b6000612e5a87828801612cc5565b9450506020612e6b87828801612cc5565b9350506040612e7c87828801612d6d565b925050606085013567ffffffffffffffff811115612e9957600080fd5b612ea587828801612d19565b91505092959194509250565b60008060408385031215612ec457600080fd5b6000612ed285828601612cc5565b9250506020612ee385828601612cda565b9150509250929050565b60008060408385031215612f0057600080fd5b6000612f0e85828601612cc5565b9250506020612f1f85828601612d6d565b9150509250929050565b600060208284031215612f3b57600080fd5b6000612f4984828501612cef565b91505092915050565b600060208284031215612f6457600080fd5b6000612f7284828501612d04565b91505092915050565b600060208284031215612f8d57600080fd5b600082013567ffffffffffffffff811115612fa757600080fd5b612fb384828501612d43565b91505092915050565b600060208284031215612fce57600080fd5b6000612fdc84828501612d6d565b91505092915050565b6000612ff183836133d8565b60208301905092915050565b61300681613955565b82525050565b600061301782613805565b6130218185613833565b935061302c836137f5565b8060005b8381101561305d5781516130448882612fe5565b975061304f83613826565b925050600181019050613030565b5085935050505092915050565b61307381613967565b82525050565b600061308482613810565b61308e8185613844565b935061309e8185602086016139d8565b6130a781613b44565b840191505092915050565b60006130bd8261381b565b6130c78185613855565b93506130d78185602086016139d8565b6130e081613b44565b840191505092915050565b60006130f68261381b565b6131008185613866565b93506131108185602086016139d8565b80840191505092915050565b6000613129602d83613855565b915061313482613b55565b604082019050919050565b600061314c602b83613855565b915061315782613ba4565b604082019050919050565b600061316f603283613855565b915061317a82613bf3565b604082019050919050565b6000613192602683613855565b915061319d82613c42565b604082019050919050565b60006131b5602583613855565b91506131c082613c91565b604082019050919050565b60006131d8601c83613855565b91506131e382613ce0565b602082019050919050565b60006131fb602483613855565b915061320682613d09565b604082019050919050565b600061321e601983613855565b915061322982613d58565b602082019050919050565b6000613241602c83613855565b915061324c82613d81565b604082019050919050565b6000613264602583613855565b915061326f82613dd0565b604082019050919050565b6000613287602983613855565b915061329282613e1f565b604082019050919050565b60006132aa602083613855565b91506132b582613e6e565b602082019050919050565b60006132cd602083613855565b91506132d882613e97565b602082019050919050565b60006132f0602f83613855565b91506132fb82613ec0565b604082019050919050565b6000613313601883613855565b915061331e82613f0f565b602082019050919050565b6000613336602183613855565b915061334182613f38565b604082019050919050565b6000613359603d83613855565b915061336482613f87565b604082019050919050565b600061337c602c83613855565b915061338782613fd6565b604082019050919050565b600061339f602283613855565b91506133aa82614025565b604082019050919050565b60006133c2603583613855565b91506133cd82614074565b604082019050919050565b6133e1816139bf565b82525050565b6133f0816139bf565b82525050565b600061340282846130eb565b915081905092915050565b60006020820190506134226000830184612ffd565b92915050565b600060808201905061343d6000830187612ffd565b61344a6020830186612ffd565b61345760408301856133e7565b81810360608301526134698184613079565b905095945050505050565b6000602082019050818103600083015261348e818461300c565b905092915050565b60006020820190506134ab600083018461306a565b92915050565b600060208201905081810360008301526134cb81846130b2565b905092915050565b600060208201905081810360008301526134ec8161311c565b9050919050565b6000602082019050818103600083015261350c8161313f565b9050919050565b6000602082019050818103600083015261352c81613162565b9050919050565b6000602082019050818103600083015261354c81613185565b9050919050565b6000602082019050818103600083015261356c816131a8565b9050919050565b6000602082019050818103600083015261358c816131cb565b9050919050565b600060208201905081810360008301526135ac816131ee565b9050919050565b600060208201905081810360008301526135cc81613211565b9050919050565b600060208201905081810360008301526135ec81613234565b9050919050565b6000602082019050818103600083015261360c81613257565b9050919050565b6000602082019050818103600083015261362c8161327a565b9050919050565b6000602082019050818103600083015261364c8161329d565b9050919050565b6000602082019050818103600083015261366c816132c0565b9050919050565b6000602082019050818103600083015261368c816132e3565b9050919050565b600060208201905081810360008301526136ac81613306565b9050919050565b600060208201905081810360008301526136cc81613329565b9050919050565b600060208201905081810360008301526136ec8161334c565b9050919050565b6000602082019050818103600083015261370c8161336f565b9050919050565b6000602082019050818103600083015261372c81613392565b9050919050565b6000602082019050818103600083015261374c816133b5565b9050919050565b600060208201905061376860008301846133e7565b92915050565b6000613778613789565b90506137848282613a3d565b919050565b6000604051905090565b600067ffffffffffffffff8211156137ae576137ad613b15565b5b6137b782613b44565b9050602081019050919050565b600067ffffffffffffffff8211156137df576137de613b15565b5b6137e882613b44565b9050602081019050919050565b6000819050602082019050919050565b600081519050919050565b600081519050919050565b600081519050919050565b6000602082019050919050565b600082825260208201905092915050565b600082825260208201905092915050565b600082825260208201905092915050565b600081905092915050565b600061387c826139bf565b9150613887836139bf565b9250827fffffffffffffffffffffffffffffffffffffffffffffffffffffffffffffffff038211156138bc576138bb613ab7565b5b828201905092915050565b60006138d2826139bf565b91506138dd836139bf565b9250817fffffffffffffffffffffffffffffffffffffffffffffffffffffffffffffffff048311821515161561391657613915613ab7565b5b828202905092915050565b600061392c826139bf565b9150613937836139bf565b92508282101561394a57613949613ab7565b5b828203905092915050565b60006139608261399f565b9050919050565b60008115159050919050565b60007fffffffff0000000000000000000000000000000000000000000000000000000082169050919050565b600073ffffffffffffffffffffffffffffffffffffffff82169050919050565b6000819050919050565b82818337600083830152505050565b60005b838110156139f65780820151818401526020810190506139db565b83811115613a05576000848401525b50505050565b60006002820490506001821680613a2357607f821691505b60208210811415613a3757613a36613ae6565b5b50919050565b613a4682613b44565b810181811067ffffffffffffffff82111715613a6557613a64613b15565b5b80604052505050565b6000613a79826139bf565b91507fffffffffffffffffffffffffffffffffffffffffffffffffffffffffffffffff821415613aac57613aab613ab7565b5b600182019050919050565b7f4e487b7100000000000000000000000000000000000000000000000000000000600052601160045260246000fd5b7f4e487b7100000000000000000000000000000000000000000000000000000000600052602260045260246000fd5b7f4e487b7100000000000000000000000000000000000000000000000000000000600052604160045260246000fd5b6000601f19601f8301169050919050565b7f4552433732313a2063616c6c6572206973206e6f7420746f6b656e206f776e6560008201527f72206f7220617070726f76656400000000000000000000000000000000000000602082015250565b7f455243373231456e756d657261626c653a206f776e657220696e646578206f7560008201527f74206f6620626f756e6473000000000000000000000000000000000000000000602082015250565b7f4552433732313a207472616e7366657220746f206e6f6e20455243373231526560008201527f63656976657220696d706c656d656e7465720000000000000000000000000000602082015250565b7f4f776e61626c653a206e6577206f776e657220697320746865207a65726f206160008201527f6464726573730000000000000000000000000000000000000000000000000000602082015250565b7f4552433732313a207472616e736665722066726f6d20696e636f72726563742060008201527f6f776e6572000000000000000000000000000000000000000000000000000000602082015250565b7f4552433732313a20746f6b656e20616c7265616479206d696e74656400000000600082015250565b7f4552433732313a207472616e7366657220746f20746865207a65726f2061646460008201527f7265737300000000000000000000000000000000000000000000000000000000602082015250565b7f4552433732313a20617070726f766520746f2063616c6c657200000000000000600082015250565b7f4e6f7420656e6f75676820457468657220696e2077616c6c657420746f20707560008201527f726368617365204e4654732e0000000000000000000000000000000000000000602082015250565b7f43616e6e6f74206d696e7420737065636966696564206e756d626572206f662060008201527f4e4654732e000000000000000000000000000000000000000000000000000000602082015250565b7f4552433732313a2061646472657373207a65726f206973206e6f74206120766160008201527f6c6964206f776e65720000000000000000000000000000000000000000000000602082015250565b7f4552433732313a206d696e7420746f20746865207a65726f2061646472657373600082015250565b7f4f776e61626c653a2063616c6c6572206973206e6f7420746865206f776e6572600082015250565b7f4552433732314d657461646174613a2055524920717565727920666f72206e6f60008201527f6e6578697374656e7420746f6b656e0000000000000000000000000000000000602082015250565b7f4552433732313a20696e76616c696420746f6b656e2049440000000000000000600082015250565b7f4552433732313a20617070726f76616c20746f2063757272656e74206f776e6560008201527f7200000000000000000000000000000000000000000000000000000000000000602082015250565b7f4552433732313a20617070726f76652063616c6c6572206973206e6f7420746f60008201527f6b656e206f776e6572206f7220617070726f76656420666f7220616c6c000000602082015250565b7f455243373231456e756d657261626c653a20676c6f62616c20696e646578206f60008201527f7574206f6620626f756e64730000000000000000000000000000000000000000602082015250565b7f4e6f7420656e6f756768204e4654732072656d61696e696e6720746f206d696e60008201527f742e000000000000000000000000000000000000000000000000000000000000602082015250565b7f455243373231456e756d657261626c653a20636f6e736563757469766520747260008201527f616e7366657273206e6f7420737570706f727465640000000000000000000000602082015250565b6140cc81613955565b81146140d757600080fd5b50565b6140e381613967565b81146140ee57600080fd5b50565b6140fa81613973565b811461410557600080fd5b50565b614111816139bf565b811461411c57600080fd5b5056fea264697066735822122003479f587c3d0a2d3b8f450cae27d6e6ace7defd11ca3458e559c39cf546344a64736f6c63430008030033",
  "linkReferences": {},
  "deployedLinkReferences": {}
}